:100000000C942A000C9434000C9434000C943400AA
:100010000C9434000C9434000C9434000C94340090
:100020000C9434000C9434000C9434000C94340080
:100030000C9434000C9434000C9434000C94340070
:100040000C9434000C9434000C9434000C94340060
:100050000C94340011241FBECFE5D8E0DEBFCDBF25
:100060000E9436000C9458000C94000010BC8CE0E8
:1000700089B9539A549A80B5806880BD80B58260F2
:1000800080BD80B5846080BD8FEF84BB94E022E0AA
:1000900031E05F9BFECF8CB18F3411F435BBF9CFCB
:1000A000853411F425BBF5CF873599F795BBF1CF92
:0400B000F894FFCFF2
:00000001FF
